:060000000A128A11122809
:10000800FE00030E83160313AE000408AF000A08AF
:10001800B0007F08B1000A128A15EA2C0A128A1168
:1000280015288313D530FD000730FE00F630FF0099
:10003800CD3084000A128A1504220A128A11BA30B5
:100048008400CD300A128A15E9210A128A11EF01BB
:1000580083010A128A15422E831203133D08803940
:10006800C2004208C7003D08C2004207C300430857
:10007800CD00BC1F4028412842284D144D080319C3
:100088004628472856284D0A031D4B284C28542833
:100098000030BD000030BC000030BB000030BA00AA
:1000A800BC175E280030BD000030BC000030BB002B
:1000B8000030BA0041088039C2004208C70641082A
:1000C800C2004207C3004308CC00C01F6C286D283B
:1000D8006E284C144C0803197228732882284C0A7D
:1000E800031D7728782880280030C1000030C00020
:1000F8000030BF000030BE00C0178A280030C100A1
:100108000030C0000030BF000030BE004C080319AA
:100118008E288F2894284D08031D932894289D28FD
:100128000030BD000030BC000030BB000030BA0019
:10013800902B3A08C2004208F00040080A128A15BB
:100148002E220A128A11710883120313D300700831
:10015800D2005208C200C301C401C5014508CB0042
:100168004408CA004308C9004208C8005308C2002E
:10017800C301C401C5014508D1004408D0004308A3
:10018800CF004208CE003B08C2004208F0003F08FA
:100198000A128A152E220A128A1171088312031371
:1001A800D3007008D2005208C200C301C401C501BF
:1001B8004208C807430803110318013E0319E5283C
:1001C800C907440803110318013E0319EC28CA079C
:1001D800450803110318013E0319F328CB075308F8
:1001E800C200C301C401C5014208CE074308031178
:1001F8000318013E03190129CF0744080311031806
:10020800013E03190829D007450803110318013EC8
:1002180003190F29D1073C08C2004208F0003E0824
:100228000A128A152E220A128A11710883120313E0
:10023800D3007008D2005208C200C301C401C5012E
:100248004208C807430803110318013E03192D2962
:10025800C907440803110318013E03193429CA07C2
:10026800450803110318013E03193B29CB0753081E
:10027800C200C301C401C5014208CE0743080311E7
:100288000318013E03194929CF074408031103182D
:10029800013E03195029D007450803110318013EF0
:1002A80003195729D1070830C2000310C80DC90D1A
:1002B800CA0DCB0DC20B59293B08C2004208F000F9
:1002C8003E080A128A152E220A128A117108831210
:1002D8000313D3007008D2005208C2005308C300A9
:1002E800C401C5014208C807430803110318013EA9
:1002F80003197F29C907440803110318013E03198C
:100308008629CA07450803110318013E03198D29D8
:10031800CB073A08C2004208F0003F080A128A15C3
:100328002E220A128A11710883120313D30070084F
:10033800D2005208C2005308C300C401C5014208D4
:10034800C807430803110318013E0319AC29C9075C
:10035800440803110318013E0319B329CA074508C5
:1003680003110318013E0319BA29CB070830C2004C
:100378000310C80DC90DCA0DCB0DC20BBC293A0814
:10038800C2004208F0003E080A128A152E220A12FC
:100398008A11710883120313D3007008D20052081F
:1003A800C2005308C300C401C5014208C807430876
:1003B80003110318013E0319E229C9074408031170
:1003C8000318013E0319E929CA0745080311031850
:1003D800013E0319F029CB073B08C2004208F00090
:1003E80040080A128A152E220A128A1171088312ED
:1003F8000313D3007008D2005208C2005308C30088
:10040800C401C5014208CE07430803110318013E81
:1004180003190F2ACF07440803110318013E0319D3
:10042800162AD007450803110318013E03191D2A8F
:10043800D1073C08C2004208F0003F080A128A159A
:100448002E220A128A11710883120313D30070082E
:10045800D2005208C2005308C300C401C5014208B3
:10046800CE07430803110318013E03193C2ACF079E
:10047800440803110318013E0319432AD00745080D
:1004880003110318013E03194A2AD1073C08C20088
:100498004208F00040080A128A152E220A128A1110
:1004A800710883120313D3007008D2005208C200E7
:1004B8005308C300C401C50108300310C20DC30DA1
:1004C800C40DC50DFF3E031D612A4208CE0743082F
:1004D80003110318013E0319722ACF0744080311B8
:1004E8000318013E0319792AD00745080311031898
:1004F800013E0319802AD1074808C2004908C300F1
:100508004A08C4004B08C50018300310C50CC40CB9
:10051800C30CC20CFF3E031D892A4208CE074308BC
:1005280003110318013E03199A2ACF07440803113F
:100538000318013E0319A12AD0074508031103181F
:10054800013E0319A82AD1070830C2000310C80DBC
:10055800C90DCA0DCB0DC20BAA2A4D084C07C20003
:10056800C301C30D4208823ED20043080318013E6E
:10057800FF3ED300DC2A0130C2000310CE0DCF0DA0
:10058800D00DD10DC20BC12ACB1FCB2ACC2ACD2A24
:100598004E140130C2000310C80DC90DCA0DCB0D91
:1005A800C20BCF2AFF30D2070318D30AFF30D30774
:1005B800D01FDF2AE02ABF2ACC01CB1FE42AE52A74
:1005C800012BFF304805C200FF304905C300FF304A
:1005D8004A05C4007F304B05C50045084404430460
:1005E80042040319F82AF92AFC2ACC01CC0A012B67
:1005F8004E1CFF2A002B012BF92A4C080319052B46
:10060800062B372B0130CE07003003180130CF07F7
:10061800003003180130D007003003180130D1072B
:10062800511C172B182B372B4E08C2004F08C3003C
:100638005008C4005108C5000130C600450DC50C5E
:10064800C40CC30CC20CC60B222B4508D1004408AD
:10065800D0004308CF004208CE000130D20703186B
:10066800D30A0030D3075308803AFF0080307F0256
:10067800031D402BFF305202031C432B442B4F2BEE
:100688007F3083120313D1008030D0000030CF00B8
:100698000030CE00842B831203135308803AFF00E6
:1006A80080307F02031D5A2B0130520203185D2B44
:1006B8005E2B6A2B003083120313D1000030D00068
:1006C8000030CF000030CE00C701842B8312031303
:1006D8005208C2004208CD00FF30CE05FF30CF05DA
:1006E8007F30D0050030D1054D1C7B2B7C2B7D2B1A
:1006F800D0174D08C2000310420CC3004308D100B4
:100708004708C2004208D1045108BD005008BC0087
:100718004F08BB004E08BA0008008312031357089D
:100728008039DC005C08E4005708DC005C07DD0069
:100738005D08E600D61FA12BA22BA32B6614660822
:100748000319A72BA82BB82B660A031DAC2BAD2BBE
:10075800B52B0030D7000030D6000030D50000306F
:10076800D400D617D701C02B0030D7000030D600F0
:100778000030D5000030D4005B088039DC005C080C
:10078800E500650864060319CA2BCB2BCC2B64172C
:100798005B08DC005C07DD005D08E500DA1FD52B8F
:1007A800D62BD72B651465080319DB2BDC2BEC2B18
:1007B800650A031DE02BE12BE92B0030DB0000303C
:1007C800DA000030D9000030D800DA17DB01F42B4A
:1007D8000030DB000030DA000030D9000030D800EB
:1007E800660865020318F92BFA2B3E2C641FFD2BB3
:1007F800FE2B022C8030DC005C08E4066608DC0076
:100808005C08E7006508DC005C08E6006708DC00B7
:100818005C08E5005408DC005C08E7005808DC00C8
:100828005C08D4006708DC005C08D8005508DC00C8
:100838005C08E7005908DC005C08D5006708DC00A4
:100848005C08D9005608DC005C08E7005A08DC00A0
:100858005C08D6006708DC005C08DA005708DC0092
:100868005C08E7005B08DC005C08D7006708DC0070
:100878005C08DB00E7016508DC00DD015D08DF00DE
:1008880066085C02DE00031CDF035F08803AFF0095
:1008980080307F02031D522C1A305E02031C552C37
:1008A800562C932C831203135708560455045404EA
:1008B800031D5F2C612C0130622C0030DC005C08C9
:1008C800E7000030D7000030D6000030D5000030F7
:1008D800D4006508DC005C08E6009B2C671C752CBE
:1008E800762C7F2C6708DC0003105C0C0138DD00D7
:1008F8005D08E700812C0310E70C541C842C852C20
:10090800862CE7170130DC00570DD70CD60CD50C18
:10091800D40CDC0B882C0130DC005C08E607831261
:10092800031365086602031C9A2C9B2C722C641B0B
:100938009E2C9F2CEA2C6608031DA32CA42CAD2CFE
:100948000030D7000030D6000030D5000030D40089
:10095800182E5808D407590803110318013E031923
:10096800B62CD5075A0803110318013E0319BD2CEC
:10097800D6075B0803110318013E0319C42CD707D7
:10098800571CC72CC82C9E2D671CCB2CCC2CD52CC7
:100998006708DC0003105C0C0138DD005D08E70027
:1009A800D72C0310E70C541CDA2CDB2CDC2CE717B3
:1009B8000130DC00570DD70CD60CD50CD40CDC0B51
:1009C800DE2C0130DC005C08E6079E2D5708803AD3
:1009D800FF005B08803A7F02031DFC2C5A08560270
:1009E800031DFC2C59085502031DFC2C5808540201
:1009F8000318FF2C002D582DFF30DC00FF30DD00E0
:100A0800FF30DE00FF30DF005808E0005908E10041
:100A18005A08E2005B08E3005408E0025508031C8A
:100A2800550F172D182DE1025608031C560F1D2DC2
:100A38001E2DE2025708031C570F232D242DE30215
:100A48006008DC0761080318610F2B2D2C2DDD07CA
:100A580062080318620F312D322DDE076308031870
:100A6800630ADF075F08D7005E08D6005D08D50077
:100A78005C08D4008030DC005C08E406E709E70A7B
:100A88006708031D482D492D662D0130D407003015
:100A980003180130D507003003180130D60700309D
:100AA80003180130D707662D5808D4025908031CCB
:100AB800590FD5025A08031C5A0FD6025B08031CAB
:100AC8005B0FD7025708560455045404031D6D2DB7
:100AD8006E2D9A2D6708031D722D732D9A2D0030E7
:100AE800D7000030D6000030D5000030D400182ED2
:100AF8000130DC000310D40DD50DD60DD70DDC0B5D
:100B08007E2DE71F882D892D8A2D5414671C8D2D65
:100B18008E2D912D0314E70D932D0310E70D660814
:100B28000319972D982D9A2D0130E602D61F9D2D79
:100B38009E2D7C2DE501E71FA22DA32DB12D670861
:100B48007F390319A82DA92DAC2DE501E50AB12D92
:100B5800541CAF2DB02DB12DA92D65080319B52D45
:100B6800B62DEA2D0130D407003003180130D5071F
:100B7800003003180130D607003003180130D707BA
:100B8800571CC72DC82DEA2D5408DC005508DD0078
:100B98005608DE005708DF000130E0005F0DDF0C6B
:100BA800DE0CDD0CDC0CE00BD22D5F08D7005E08F4
:100BB800D6005D08D5005C08D400660A0319E52D47
:100BC800E62DEA2D0130DC005C08E607660A031909
:100BD800EE2DEF2DF42D6608031DF32DF42D022EB6
:100BE8000030D7000030D6000030D5000030D400E7
:100BF8006608031D002E012E022EE401661C052E38
:100C0800062E082ED6170C2E7F30DC005C08D60581
:100C18006608DC0003105C0CDD005D08D700E41FEB
:100C2800162E172E182ED71708008312031327081D
:100C38008039A8002808B1002708A8002807A900BB
:100C48002908B800A61F292E2A2E2B2E381438085A
:100C580003192F2E302E402E380A031D342E352E20
:100C68003D2E0030A7000030A6000030A50000305F
:100C7800A400A617A701482E0030A7000030A60040
:100C88000030A5000030A40023088039A8002808F7
:100C9800B1062308A8002807A9002908B900A21F3F
:100CA800562E572E582E3914390803195C2E5D2EEE
:100CB8006D2E390A031D612E622E6A2E0030A300A4
:100CC8000030A2000030A1000030A000A217A3014C
:100CD800752E0030A3000030A2000030A1000030C3
:100CE800A0002308220421042004031D7C2E7D2E4D
:100CF800962E0030A7000030A6000030A500003076
:100D0800A4008030A6047F30A7043108A800280872
:100D1800A7042708A3002608A2002508A100240884
:100D2800A000F52F3808031D9A2E9B2EA42E003004
:100D3800A3000030A2000030A1000030A000F52F71
:100D48003808A800A9012908AB0039082802AA0018
:100D5800031CAB032A087F3EB2002B080318013E90
:100D6800003EB3002708B0002608AF002508AE00F3
:100D78002408AD000030A7000030A6000030A50010
:100D88000030A4000030B7000030B6000030B500D5
:100D98000030B400B9011A2F39080319D42ED52E02
:100DA800F52E0130A8000310AD0DAE0DAF0DB00D3E
:100DB800A80BD72E0130A8000310A40DA50DA60D71
:100DC800A70DA80BE02EB71FEA2EEB2EEC2E24144D
:100DD8000130A8000310B40DB50DB60DB70DA80B62
:100DE800EE2E23083002031D032F22082F02031DB5
:100DF800032F21082E02031D032F20082D02031C98
:100E0800062F072F162F37172008AD022108031CBD
:100E1800210FAE022208031C220FAF022308031C75
:100E2800230FB0020130A8002808B9071A30390288
:100E3800031C1F2F202FD02E30082F042E042D0422
:100E48000319272F282F472F3414472F0130A800C4
:100E58000310A40DA50DA60DA70DA80B2C2FB71FC9
:100E6800362F372F382F24140130A8000310B40D63
:100E7800B50DB60DB70DA80B3A2FFF30B207031802
:100E8800B30AFF30B307A61F4A2F4B2F2A2FB901E9
:100E9800B71F4F2F502F6C2FFF303405A800FF309D
:100EA8003505A900FF303605AA007F303705AB00AD
:100EB8002B082A04290428040319632F642F672F99
:100EC800B901B90A6C2F241C6A2F6B2F6C2F642F61
:100ED80039080319702F712FA22F0130A407003091
:100EE80003180130A507003003180130A6070030A9
:100EF80003180130A707271C822F832FA22F24084D
:100F0800A8002508A9002608AA002708AB00013078
:100F1800AC002B0DAB0CAA0CA90CA80CAC0B8D2F9C
:100F28002B08A7002A08A6002908A5002808A4005D
:100F38000130B2070318B30A0030B3073308803A08
:100F4800FF0080307F02031DAB2FFF303202031CED
:100F5800AE2FAF2FBD2FFF3083120313B200003026
:100F6800B3000030A7000030A6000030A500003014
:100F7800A400831203133308803AFF0080307F02F5
:100F8800031DC82F013032020318CB2FCC2FD92FC5
:100F980083120313B201B3010030A7000030A6008A
:100FA8000030A5000030A400B101831203133208F9
:100FB800A8002808B800381CE22FE32FE52FA61751
:100FC800E92F7F30A8002808A6053808A8000310D4
:100FD800280CA9002908A7003108A8002808A70498
:100FE8008D2E0800043405340634073400340134E7
:040FF8000234033488
:1013D20064008001840A0406031900340406EA2921
:1013E20083160313B2003208831203178D0083168B
:1013F20003178C130C14831203170C0808007E08C1
:101402008A007F0882000A128A1500220A128A15AF
:101412008000840A04087D0603190034FF0A0319B8
:10142200FE0A042A83160313B30033088312031738
:101432008D00831603133208831203178C00831660
:1014420003178C130C158B1355308D00AA308D00A9
:101452008C140C110B108B170800F800F401F50125
:101462007008F200F3017208F6007308F700781CA6
:101472003B2A3C2A422A7608F4070318F50A770821
:10148200F50701300310F60DF70DFF3E031D432A49
:101492000310F80C7808031D4F2A502A382A7508C1
:1014A200F1007408F00008000F308316031788005B
:1014B2008901073083160313860083120313860102
:1014C20083160313880183120313880183160313FF
:1014D20089018312031389010F30831603138500D8
:1014E20083120313850183160313811307309500BA
:1014F200073096000F088F3940388F000F1483127F
:1015020003131F083F3940389F00831603131F122D
:101512009F12C330831203139F05831603139F1375
:10152200831203131F14023083160313B200B20B8B
:10153200982A000083160313071587143D30920082
:101542008312031397013F3097051708F0390C38BF
:1015520097000F3095001708CF39103897009D017A
:101562001D08F0390C389D000F309B001D169D128E
:101572008C100330920412158C1CC02AC12ABD2A79
:101582008C10831603130711871010308700831203
:1015920003138701F0309405141294168316031373
:1015A200141794174C088312031393008B170B170D
:1015B200831603130C17831203130C138B150B10D2
:1015C20008000310831203136A0D6B0D83160313B5
:1015D200A000200883120313ED006D08031DF22AF8
:1015E200F32AFC2A0030EB000030EA000030E90068
:1015F2000030E8007D2B680883160313A0008312D5
:101602000313690883160313A100831203136A08E4
:1016120083160313A200831203136B0883160313AA
:10162200A3001F300310A30CA20CA10CA00CFF3EC0
:10163200031D132B2008A400240883120313EC00BB
:10164200EA17FF30E805FF30E905FF30EA05003010
:10165200EB059630ED02ED1F2F2B302B4E2B6D0834
:10166200803A973E0318362B372B382BF32A01305A
:101672000310EB0CEA0CE90CE80CFF3E031D392BBE
:10168200013083160313A000200883120313ED0711
:10169200031D4C2B4D2B382B6D2B20306D02031C60
:1016A200532B542B682BF32A013083160313A0000B
:1016B200031083120313E80DE90DEA0DEB0D8316F7
:1016C2000313A00B592B013083120313ED026D0893
:1016D200031D6C2B6D2B552B6C080319712B722B70
:1016E2007D2BE809E909EA09EB09E80A0319E90A85
:1016F2000319EA0A0319EB0A080083120313EE0026
:10170200831603132708F0002808F100F201F30101
:1017120000300A128A1530240A128A1573088312BD
:101722000313DB007208DA007108D9007008D800D0
:101732008316031327082902F0002808031C280A2D
:101742002A02F100F201F30100300A128A15302454
:101752000A128A15730883120313A7007208A600DF
:101762007108A5007008A400831603132508260239
:10177200F000F101031CF103F201F11BF203720804
:10178200F30001300A128A1530240A128A157308EE
:1017920083120313A3007208A2007108A10070084B
:1017A200A0000A128A1119260A128A15831203133B
:1017B2002308C1002208C0002108BF002008BE0083
:1017C200831603132508831203136E02F000F1013E
:1017D200031CF103F201F11BF2037208F300013062
:1017E2000A128A1530240A128A1573088312031307
:1017F200BD007208BC007108BB007008BA000A1272
:101802008A1130200A128A15831203133D08D70069
:101812003C08D6003B08D5003A08D4000A128A11C7
:1018220091230A128A15831203135708EB005608F4
:10183200EA005508E9005408E8000A128A15E22273
:101842000A128A1583120313690883160313A6006A
:1018520083120313680883160313A5000800F80017
:1018620078080319352C362C4A2CF31F392C3A2CC4
:101872004A2C7009FA007109FB007209FC00730915
:10188200FD00FA0A0319FB0A0319FC0A0319FD0AEF
:10189200522C7308FD007208FC007108FB007008EE
:1018A200FA007308720471047004031D592C5A2C37
:1018B200632C0030F3000030F2000030F100003001
:1018C200F000E92C9630F4007408F900752C013010
:1018D200F4007408F90701300310FD0CFC0CFB0C3A
:1018E200FA0CFF3E031D6D2CFE307D05031D7A2C84
:1018F2007B2C682C972C0130F4007408F907013016
:10190200FA07003003180130FB07003003180130DA
:10191200FC07003003180130FD0701300310FD0CF5
:10192200FC0CFB0CFA0CFF3E031D8F2CFF307D05D7
:10193200031D9C2C9D2C7C2CA92C0130F90201301A
:10194200F4000310FA0DFB0DFC0DFD0DF40BA22C9F
:10195200FC1BAC2CAD2CB32C023079020318B22C38
:10196200B32C9E2C7918B62CB72CBF2CFF30FA055D
:10197200FF30FB057F30FC05FF30FD050310F90C3D
:101982007908F400F501F601F70118300310F40D9F
:10199200F50DF60DF70DFF3E031DC72C7408FA0472
:1019A2007508FB047608FC047708FD04780803191F
:1019B200DB2CDC2CE12CF31FDF2CE02CE12CFD17BF
:1019C2007D08F3007C08F2007B08F1007A08F00041
:1019D2000800831203138C1DEF2CF02CF12C8C11B8
:1019E2000C1FF42CF52CD92DBE2D4808031DFA2C02
:1019F200FB2CD62DA501FF30AB002B08A6003D30F5
:101A0200A7000030A8007E30A9000030AA0083128F
:101A120003131E080A128A157E230A128A158316D8
:101A220003132608C5002508C4004508AC00440875
:101A3200AB000310AC0CAB0C0310AC0CAB0C2B08C2
:101A42008312031395008316031344080339AB0072
:101A5200AB0E831203131708831603132B06CF3919
:101A62002B06831203139700831603134408AB005B
:101A72002B08BA00D62D4808031D402D412DD62D26
:101A8200A501FF30AB002B08A6003D30A7000030B7
:101A9200A8007E30A9000030AA00831203131E089A
:101AA2000A128A157E230A128A1583160313260840
:101AB200C3002508C2004308AC004208AB00031073
:101AC200AC0CAB0C0310AC0CAB0C2B088312031345
:101AD2009B008316031342080139AB00AB0E83123D
:101AE20003131D08831603132B06EF392B068312EB
:101AF20003139D00831603134308AC004208AB0096
:101B02000310AC0CAB0C2B080139AD00AD0E8312E7
:101B120003131D08831603132D06EF392D068312B6
:101B220003139D00831603134208AB002B08BB006E
:101B3200D62D831203131E0883160313AB002B0842
:101B4200CC004808031DA62DA72DD62D4C08AB00AE
:101B52002B08BC00D62D831203131E088316031311
:101B6200AB002B08CB004808031DB82DB92DD62D8C
:101B72004B08AB002B08BD00D62D831603134A0871
:101B8200AB00AC012C08003A0319C82DD62D2B0846
:101B9200003A0319F62C013A03193C2D033A0319B2
:101BA2009A2D013A0319AC2DD62D831203130C136F
:101BB2000B1CDC2DDD2D352E0618E02DE12DEF2D31
:101BC200013083160313AB002B08C8070330480209
:101BD200031CEC2DED2D342EC801342E8618F22D67
:101BE200F32D102EFB2DC701C70AC901342EC601E1
:101BF200C60AF62D831603134808AB00AC012C0865
:101C0200003A0319052E342E2B08003A0319F42D3D
:101C1200013A0319F82D033A0319342E342E06190A
:101C2200132E142E342E1F2EC701C70A0530AB0007
:101C32002B08C900342EC601C60A172E83160313B9
:101C42004808AB00AC012C08003A0319292E342EA7
:101C52002B08003A0319152E013A03191C2E033AD8
:101C62000319342E342E0B10831603133108FF0090
:101C720030088A002F0884002E0E8300FE0E7E0E8E
:101C820009000A128A1555220A128A1583160313AD
:101C920048088312031389009F18502E512EE82FF3
:101CA2001F0C83160313B400340C0F39003A031DC2
:101CB2005B2E5C2E672E831203131F08C339043870
:101CC2009F0083160313CA01CA0AB02E831203139C
:101CD2001F0C83160313B400340C0F39013A031D91
:101CE200732E742E812E831203131F08C3390838F2
:101CF2009F00023083160313B4003408CA00B02ECA
:101D0200831203131F0C83160313B400340C0F3910
:101D1200023A031D8D2E8E2E9B2E831203131F0853
:101D2200C3390C389F00033083160313B400340800
:101D3200CA00B02E831203131F0C83160313B400C0
:101D4200340C0F39033A031DA72EA82EB02EC33030
:101D5200831203139F0583160313CA01B02E0230A8
:101D620083160313B400B40BB42E000083120313C2
:101D72009F14E82F4C088312031393008316031356
:101D8200141CC42EC52EBF2E113083160313B500AA
:101D92003930B400B40BCB2EB50BCB2ED02E83161C
:101DA20003134B0883120313930083160313141CAB
:101DB200DB2EDC2ED62E113083160313B5003930FC
:101DC200B400B40BE22EB50BE22EE72E83160313FA
:101DD20047080319ED2EEE2E472EB601B7018316E2
:101DE20003133608BA3E840083130008B400340893
:101DF200B20049080A128A1513220A128A151130F2
:101E020083160313B5003930B400B40B062FB50B9B
:101E1200062F0B2F013083160313B4003408C907B1
:101E22000130B6070318B70A0030B7073708803AFF
:101E3200FF0080307F02031D202F04303602031C76
:101E4200232F242FF02E83160313C701472E460893
:101E520003192C2F2D2F472EB801B9018316031316
:101E620049080A128A15F1210A128A1583160313E8
:101E7200B4003808BA3E840034088313800011305D
:101E820083160313B5003930B400B40B462FB50BDB
:101E9200462F4B2F013083160313B4003408C907B1
:101EA2000130B8070318B90A0030B9073908803A77
:101EB200FF0080307F02031D602F04303802031CB4
:101EC200632F642F2F2F831603133A08B4000230B6
:101ED2000310B40CFF3E031D692F34088312031351
:101EE2009500831603133A080339B400B40E831223
:101EF20003131708831603133406CF3934068312EB
:101F020003139700831603133B08B4000230031037
:101F1200B40CFF3E031D882F3408831203139B0069
:101F2200831603133B080139B400B40E8312031362
:101F32001D08831603133406EF3934068312031384
:101F42009D00831603133B08B4000310340C0139BF
:101F5200B500B50E831203131D088316031335064D
:101F6200EF393506831203139D00831603133C08D1
:101F720083120313930083160313141CC12FC22F61
:101F8200BC2F113083160313B5003930B400B40BE3
:101F9200C82FB50BC82FCD2F831603133D0883120C
:101FA2000313930083160313141CD82FD92FD32F96
:101FB200113083160313B5003930B400B40BDF2F90
:101FC200B50BDF2FE42F83160313C601472E8316AA
:101FD20003134808B400B5013508003A0319F22F7B
:101FE200472E3408003A0319BB2E013A0319282F51
:0E1FF200033A0319472E472E0A128A111228AD
:08400000FF3FFF3FFF3FFF3FC0
:04400E00D420FF3F7C
:00000001FF
