:060000000A128A11122809
:10000800FE00030E83160313AE000408AF000A08AF
:10001800B0007F08B1000A128A15252F0A128A112A
:10002800152883120313EF0183160313B501B601D4
:10003800B701B801B901BA01BB01BC01BD01BE01DC
:10004800BF01C001C10183010A128A15132D831251
:1000580003133D088039C2004208C7003D08C200AA
:100068004207C3004308CD00BC1F3B283C283D285D
:100078004D144D0803194128422851284D0A031DE3
:10008800462847284F280030BD000030BC0000300B
:10009800BB000030BA00BC1759280030BD00003042
:1000A800BC000030BB000030BA0041088039C200F3
:1000B8004208C7064108C2004207C3004308CC00F3
:1000C800C01F6728682869284C144C0803196D2834
:1000D8006E287D284C0A031D722873287B2800305F
:1000E800C1000030C0000030BF000030BE00C017A3
:1000F80085280030C1000030C0000030BF0000304B
:10010800BE004C08031989288A288F284D08031D2A
:100118008E288F2898280030BD000030BC000030A1
:10012800BB000030BA008B2B3A08C2004208F0002E
:1001380040080A128A15D1230A128A1171088312FB
:100148000313D3007008D2005208C200C301C401CF
:10015800C5014508CB004408CA004308C900420845
:10016800C8005308C200C301C401C5014508D10035
:100178004408D0004308CF004208CE003B08C20024
:100188004208F0003F080A128A15D1230A128A1180
:10019800710883120313D3007008D2005208C200FA
:1001A800C301C401C5014208C80743080311031865
:1001B800013E0319E028C907440803110318013E4A
:1001C8000319E728CA07450803110318013E031954
:1001D800EE28CB075308C200C301C401C501420879
:1001E800CE07430803110318013E0319FC28CF0763
:1001F800440803110318013E03190329D0074508D1
:1002080003110318013E03190A29D1073C08C2004B
:100218004208F0003E080A128A15D1230A128A11F0
:10022800710883120313D3007008D2005208C20069
:10023800C301C401C5014208C807430803110318D4
:10024800013E03192829C907440803110318013E70
:1002580003192F29CA07450803110318013E03197A
:100268003629CB075308C200C301C401C50142089F
:10027800CE07430803110318013E03194429CF0789
:10028800440803110318013E03194B29D0074508F8
:1002980003110318013E03195229D1070830C2007F
:1002A8000310C80DC90DCA0DCB0DC20B54293B084C
:1002B800C2004208F0003E080A128A15D1230A1229
:1002C8008A11710883120313D3007008D2005208F0
:1002D800C2005308C300C401C5014208C807430847
:1002E80003110318013E03197A29C90744080311A9
:1002F8000318013E03198129CA0745080311031889
:10030800013E03198829CB073A08C2004208F000C9
:100318003F080A128A15D1230A128A11710883121A
:100328000313D3007008D2005208C2005308C30058
:10033800C401C5014208C807430803110318013E58
:100348000319A729C907440803110318013E031913
:10035800AE29CA07450803110318013E0319B52938
:10036800CB070830C2000310C80DC90DCA0DCB0D4C
:10037800C20BB7293A08C2004208F0003E080A1228
:100388008A15D1230A128A11710883120313D30024
:100398007008D2005208C2005308C300C401C50146
:1003A8004208C807430803110318013E0319DD2951
:1003B800C907440803110318013E0319E429CA07B1
:1003C800450803110318013E0319EB29CB073B0825
:1003D800C2004208F00040080A128A15D1230A1206
:1003E8008A11710883120313D3007008D2005208CF
:1003F800C2005308C300C401C5014208CE07430820
:1004080003110318013E03190A2ACF0744080311F0
:100418000318013E0319112AD007450803110318D0
:10042800013E0319182AD1073C08C2004208F0000F
:100438003F080A128A15D1230A128A1171088312F9
:100448000313D3007008D2005208C2005308C30037
:10045800C401C5014208CE07430803110318013E31
:100468000319372ACF07440803110318013E03195B
:100478003E2AD007450803110318013E0319452AEF
:10048800D1073C08C2004208F00040080A128A1549
:10049800D1230A128A11710883120313D30070083A
:1004A800D2005208C2005308C300C401C501083075
:1004B8000310C20DC30DC40DC50DFF3E031D5C2AFC
:1004C8004208CE07430803110318013E03196D2A99
:1004D800CF07440803110318013E0319742AD007F3
:1004E800450803110318013E03197B2AD107480860
:1004F800C2004908C3004A08C4004B08C5001830A8
:100508000310C50CC40CC30CC20CFF3E031D842A87
:100518004208CE07430803110318013E0319952A20
:10052800CF07440803110318013E03199C2AD0077A
:10053800450803110318013E0319A32AD1070830FF
:10054800C2000310C80DC90DCA0DCB0DC20BA52AD8
:100558004D084C07C200C301C30D4208823ED200B9
:1005680043080318013EFF3ED300D72A0130C200DA
:100578000310CE0DCF0DD00DD10DC20BBC2ACB1F51
:10058800C62AC72AC82A4E140130C2000310C80D53
:10059800C90DCA0DCB0DC20BCA2AFF30D2070318EA
:1005A800D30AFF30D307D01FDA2ADB2ABA2ACC01B4
:1005B800CB1FDF2AE02AFC2AFF304805C200FF30A3
:1005C8004905C300FF304A05C4007F304B05C5000C
:1005D80045084404430442040319F32AF42AF72A79
:1005E800CC01CC0AFC2A4E1CFA2AFB2AFC2AF42A43
:1005F8004C080319002B012B322B0130CE07003099
:1006080003180130CF07003003180130D00700303D
:1006180003180130D107511C122B132B322B4E0813
:10062800C2004F08C3005008C4005108C50001307B
:10063800C600450DC50CC40CC30CC20CC60B1D2B43
:100648004508D1004408D0004308CF004208CE0036
:100658000130D2070318D30A0030D3075308803A71
:10066800FF0080307F02031D3B2BFF305202031C2A
:100678003E2B3F2B4A2B7F3083120313D10080304F
:10068800D0000030CF000030CE007F2B8312031340
:100698005308803AFF0080307F02031D552B01303C
:1006A80052020318582B592B652B00308312031361
:1006B800D1000030D0000030CF000030CE00C7019C
:1006C8007F2B831203135208C2004208CD00FF306B
:1006D800CE05FF30CF057F30D0050030D1054D1C49
:1006E800762B772B782BD0174D08C2000310420CBD
:1006F800C3004308D1004708C2004208D10451088A
:10070800BD005008BC004F08BB004E08BA000800E6
:100718008312031357088039DC005C08E40057088B
:10072800DC005C07DD005D08E600D61F9C2B9D2BD6
:100738009E2B661466080319A22BA32BB32B660AFB
:10074800031DA72BA82BB02B0030D7000030D600F4
:100758000030D5000030D400D617D701BB2B0030AD
:10076800D7000030D6000030D5000030D4005B0838
:100778008039DC005C08E500650864060319C52BB0
:10078800C62BC72B64175B08DC005C07DD005D081F
:10079800E500DA1FD02BD12BD22B6514650803197D
:1007A800D62BD72BE72B650A031DDB2BDC2BE42B81
:1007B8000030DB000030DA000030D9000030D8000B
:1007C800DA17DB01EF2B0030DB000030DA000030F5
:1007D800D9000030D800660865020318F42BF52B01
:1007E800392C641FF82BF92BFD2B8030DC005C08BA
:1007F800E4066608DC005C08E7006508DC005C08C5
:10080800E6006708DC005C08E5005408DC005C08CA
:10081800E7005808DC005C08D4006708DC005C08C6
:10082800D8005508DC005C08E7005908DC005C08C3
:10083800D5006708DC005C08D9005608DC005C08B5
:10084800E7005A08DC005C08D6006708DC005C0892
:10085800DA005708DC005C08E7005B08DC005C088D
:10086800D7006708DC005C08DB00E7016508DC00EE
:10087800DD015D08DF0066085C02DE00031CDF03A3
:100888005F08803AFF0080307F02031D4D2C1A302C
:100898005E02031C502C512C8E2C83120313570814
:1008A800560455045404031D5A2C5C2C01305D2C4D
:1008B8000030DC005C08E7000030D7000030D600CC
:1008C8000030D5000030D4006508DC005C08E60084
:1008D800962C671C702C712C7A2C6708DC0003108E
:1008E8005C0C0138DD005D08E7007C2C0310E70C88
:1008F800541C7F2C802C812CE7170130DC00570D0D
:10090800D70CD60CD50CD40CDC0B832C0130DC00B6
:100918005C08E6078312031365086602031C952C1E
:10092800962C6D2C641B992C9A2CE52C6608031DBB
:100938009E2C9F2CA82C0030D7000030D600003009
:10094800D5000030D400132E5808D40759080311D5
:100958000318013E0319B12CD5075A0803110318CF
:10096800013E0319B82CD6075B0803110318013E92
:100978000319BF2CD707571CC22CC32C992D671CF1
:10098800C62CC72CD02C6708DC0003105C0C01387F
:10099800DD005D08E700D22C0310E70C541CD52CB1
:1009A800D62CD72CE7170130DC00570DD70CD60C06
:1009B800D50CD40CDC0BD92C0130DC005C08E60724
:1009C800992D5708803AFF005B08803A7F02031D83
:1009D800F72C5A085602031DF72C59085502031D17
:1009E800F72C580854020318FA2CFB2C532DFF300F
:1009F800DC00FF30DD00FF30DE00FF30DF0058088C
:100A0800E0005908E1005A08E2005B08E3005408D6
:100A1800E0025508031C550F122D132DE10256084C
:100A2800031C560F182D192DE2025708031C570FE7
:100A38001E2D1F2DE3026008DC0761080318610FF3
:100A4800262D272DDD0762080318620F2C2D2D2D6A
:100A5800DE0763080318630ADF075F08D7005E082C
:100A6800D6005D08D5005C08D4008030DC005C0846
:100A7800E406E709E70A6708031D432D442D612DA5
:100A88000130D407003003180130D50700300318AF
:100A98000130D607003003180130D707612D5808F8
:100AA800D4025908031C590FD5025A08031C5A0FBF
:100AB800D6025B08031C5B0FD7025708560455047F
:100AC8005404031D682D692D952D6708031D6D2D90
:100AD8006E2D952D0030D7000030D6000030D5009F
:100AE8000030D400132E0130DC000310D40DD50DD6
:100AF800D60DD70DDC0B792DE71F832D842D852D81
:100B08005414671C882D892D8C2D0314E70D8E2D08
:100B18000310E70D66080319922D932D952D0130CA
:100B2800E602D61F982D992D772DE501E71F9D2DFB
:100B38009E2DAC2D67087F390319A32DA42DA72D51
:100B4800E501E50AAC2D541CAA2DAB2DAC2DA42D26
:100B580065080319B02DB12DE52D0130D4070030FB
:100B680003180130D507003003180130D6070030CC
:100B780003180130D707571CC22DC32DE52D540883
:100B8800DC005508DD005608DE005708DF0001309C
:100B9800E0005F0DDF0CDE0CDD0CDC0CE00BCD2D76
:100BA8005F08D7005E08D6005D08D5005C08D40051
:100BB800660A0319E02DE12DE52D0130DC005C0803
:100BC800E607660A0319E92DEA2DEF2D6608031DCD
:100BD800EE2DEF2DFD2D0030D7000030D60000306F
:100BE800D5000030D4006608031DFB2DFC2DFD2D1B
:100BF800E401661C002E012E032ED617072E7F3027
:100C0800DC005C08D6056608DC0003105C0CDD001F
:100C18005D08D700E41F112E122E132ED7170800D7
:100C28008312031327088039A8002808B100270871
:100C3800A8002807A9002908B800A61F242E252ED9
:100C4800262E3814380803192A2E2B2E3B2E380A44
:100C5800031D2F2E302E382E0030A7000030A6009E
:100C68000030A5000030A400A617A701432E0030CD
:100C7800A7000030A6000030A5000030A40023081B
:100C88008039A8002808B1062308A8002807A90069
:100C98002908B900A21F512E522E532E3914390893
:100CA8000319572E582E682E390A031D5C2E5D2E07
:100CB800652E0030A3000030A2000030A1000030F3
:100CC800A000A217A301702E0030A3000030A200DC
:100CD8000030A1000030A0002308220421042004D1
:100CE800031D772E782E912E0030A7000030A60025
:100CF8000030A5000030A4008030A6047F30A7048F
:100D08003108A8002808A7042708A3002608A2007D
:100D18002508A1002408A000F02F3808031D952EEF
:100D2800962E9F2E0030A3000030A2000030A100B4
:100D38000030A000F02F3808A800A9012908AB004E
:100D480039082802AA00031CAB032A087F3EB20018
:100D58002B080318013E003EB3002708B000260800
:100D6800AF002508AE002408AD000030A700003011
:100D7800A6000030A5000030A4000030B700003005
:100D8800B6000030B5000030B400B901152F39089D
:100D98000319CF2ED02EF02E0130A8000310AD0D70
:100DA800AE0DAF0DB00DA80BD22E0130A800031068
:100DB800A40DA50DA60DA70DA80BDB2EB71FE52EBC
:100DC800E62EE72E24140130A8000310B40DB50D4B
:100DD800B60DB70DA80BE92E23083002031DFE2E11
:100DE80022082F02031DFE2E21082E02031DFE2EAF
:100DF80020082D02031C012F022F112F371720085E
:100E0800AD022108031C210FAE022208031C220F89
:100E1800AF022308031C230FB0020130A8002808E2
:100E2800B9071A303902031C1A2F1B2FCB2E300892
:100E38002F042E042D040319222F232F422F34149C
:100E4800422F0130A8000310A40DA50DA60DA70D73
:100E5800A80B272FB71F312F322F332F241401301F
:100E6800A8000310B40DB50DB60DB70DA80B352F9E
:100E7800FF30B2070318B30AFF30B307A61F452F88
:100E8800462F252FB901B71F4A2F4B2F672FFF3049
:100E98003405A800FF303505A900FF303605AA0043
:100EA8007F303705AB002B082A04290428040319CE
:100EB8005E2F5F2F622FB901B90A672F241C652F97
:100EC800662F672F5F2F390803196B2F6C2F9D2F03
:100ED8000130A407003003180130A50700300318BB
:100EE8000130A607003003180130A707271C7D2F03
:100EF8007E2F9D2F2408A8002508A9002608AA00EF
:100F08002708AB000130AC002B0DAB0CAA0CA90CC8
:100F1800A80CAC0B882F2B08A7002A08A6002908C4
:100F2800A5002808A4000130B2070318B30A00304E
:100F3800B3073308803AFF0080307F02031DA62FD5
:100F4800FF303202031CA92FAA2FB82FFF308312BB
:100F58000313B2000030B3000030A7000030A60031
:100F68000030A5000030A400831203133308803A30
:100F7800FF0080307F02031DC32F013032020318A7
:100F8800C62FC72FD42F83120313B201B301003029
:100F9800A7000030A6000030A5000030A400B10171
:100FA800831203133208A8002808B800381CDD2F64
:100FB800DE2FE02FA617E42F7F30A8002808A6050B
:100FC8003808A8000310280CA9002908A700310830
:0A0FD800A8002808A704882E0800CE
:1017A200F800F401F5017008F200F3017208F60086
:1017B2007308F700781CDE2BDF2BE52B7608F40785
:1017C2000318F50A7708F50701300310F60DF70D37
:1017D200FF3E031DE62B0310F80C7808031DF22BC5
:1017E200F32BDB2B7508F1007408F00008000F30B2
:1017F2008316031788008901831603138601831257
:1018020003138601831603138801831203138801CD
:101812000F30831603138500831203138501831689
:1018220003130F088F3940388F000F1483120313EC
:101832001F083F3940389F00831603131F129F125F
:10184200C330831203139F05831603139F1383125E
:1018520003131F14023083160313B200B20B2F2C92
:10186200000083160313071587143D30920083127C
:10187200031397013F3097051708F0390C3897008A
:101882000F3095001708CF39103897009D011D08B9
:10189200F0390C389D000F309B001D169D128C10E4
:1018A2000330920412158C1C572C582C542C8C107B
:1018B2008316031307118710103087008312031356
:1018C2008701F0309405141294168316031314172B
:1018D200941741088312031393008B170B17831677
:1018E20003130C17831203130C1308000310831243
:1018F20003136A0D6B0D83160313A00020088312D5
:101902000313ED006D08031D872C882C912C0030E9
:10191200EB000030EA000030E9000030E800122D50
:10192200680883160313A000831203136908831641
:101932000313A100831203136A0883160313A20080
:10194200831203136B0883160313A3001F300310C3
:10195200A30CA20CA10CA00CFF3E031DA82C200876
:10196200A400240883120313EC00EA17FF30E805F1
:10197200FF30E905FF30EA050030EB059630ED0255
:10198200ED1FC42CC52CE32C6D08803A973E03183A
:10199200CB2CCC2CCD2C882C01300310EB0CEA0C78
:1019A200E90CE80CFF3E031DCE2C01308316031315
:1019B200A000200883120313ED07031DE12CE22C83
:1019C200CD2C022D20306D02031CE82CE92CFD2CBD
:1019D200882C013083160313A00003108312031313
:1019E200E80DE90DEA0DEB0D83160313A00BEE2CA7
:1019F200013083120313ED026D08031D012D022D28
:101A0200EA2C6C080319062D072D122DE809E909A5
:101A1200EA09EB09E80A0319E90A0319EA0A0319B0
:101A2200EB0A08000A128A15F8230A128A15831291
:101A320003139F181D2D1E2D872D1F0C83160313B4
:101A4200B300330C0F39003A031D282D292D342DF4
:101A5200831203131F08C33904389F00831603132C
:101A6200BF01BF0A7D2D831203131F0C83160313BC
:101A7200B300330C0F39013A031D402D412D4E2D79
:101A8200831203131F08C33908389F0002308316DC
:101A92000313B3003308BF007D2D831203131F0C01
:101AA20083160313B300330C0F39023A031D5A2D68
:101AB2005B2D682D831203131F08C3390C389F0056
:101AC200033083160313B3003308BF007D2D831246
:101AD20003131F0C83160313B300330C0F39033A9D
:101AE200031D742D752D7D2DC330831203139F05A5
:101AF20083160313BF017D2D023083160313B30037
:101B0200B30B812D0000831203139F14831603135A
:101B1200410883120313930083160313141C922D9E
:101B2200932D8D2D113083160313B4003930B30079
:101B3200B30B992DB40B992D9E2D831603134008D8
:101B420083120313930083160313141CA92DAA2DC9
:101B5200A42D113083160313B4003930B300B30B34
:101B6200B02DB40BB02DB52D182D0A128A111228E2
:101B720083120313EE00831603132708F0002808CC
:101B8200F100F201F30100300A128A156B260A12E3
:101B92008A15730883120313DB007208DA007108D6
:101BA200D9007008D8008316031327082902F00011
:101BB2002808031C280A2A02F100F201F30100306E
:101BC2000A128A156B260A128A15730883120313E6
:101BD200A7007208A6007108A5007008A400831669
:101BE200031325082602F000F101031CF103F201A0
:101BF200F11BF2037208F30001300A128A156B26F8
:101C02000A128A15730883120313A3007208A20032
:101C12007108A1007008A0000A128A1114260A1283
:101C22008A15831203132308C1002208C000210869
:101C3200BF002008BE008316031325088312031376
:101C42006E02F000F101031CF103F201F11BF20339
:101C52007208F30001300A128A156B260A128A15DD
:101C6200730883120313BD007208BC007108BB0025
:101C72007008BA000A128A112B200A128A158312DE
:101C820003133D08D7003C08D6003B08D5003A08AC
:101C9200D4000A128A118C230A128A1583120313A2
:101CA2005708EB005608EA005508E9005408E80016
:101CB2000A128A1577240A128A15831203136908F5
:101CC20083160313A60083120313680883160313F3
:101CD200A5000800F80078080319702E712E852ED1
:101CE200F31F742E752E852E7009FA007109FB0000
:101CF2007209FC007309FD00FA0A0319FB0A0319B1
:101D0200FC0A0319FD0A8D2E7308FD007208FC00FF
:101D12007108FB007008FA00730872047104700401
:101D2200031D942E952E9E2E0030F3000030F200FB
:101D32000030F1000030F000242F9630F4007408D7
:101D4200F900B02E0130F4007408F90701300310D5
:101D5200FD0CFC0CFB0CFA0CFF3E031DA82EFE3002
:101D62007D05031DB52EB62EA32ED22E0130F40012
:101D72007408F9070130FA07003003180130FB0735
:101D8200003003180130FC07003003180130FD0752
:101D920001300310FD0CFC0CFB0CFA0CFF3E031D82
:101DA200CA2EFF307D05031DD72ED82EB72EE42E66
:101DB2000130F9020130F4000310FA0DFB0DFC0DA5
:101DC200FD0DF40BDD2EFC1BE72EE82EEE2E02306D
:101DD20079020318ED2EEE2ED92E7918F12EF22E5D
:101DE200FA2EFF30FA05FF30FB057F30FC05FF308D
:101DF200FD050310F90C7908F400F501F601F7016D
:101E020018300310F40DF50DF60DF70DFF3E031D0E
:101E1200022F7408FA047508FB047608FC0477089C
:101E2200FD0478080319162F172F1C2FF31F1A2FE2
:101E32001B2F1C2FFD177D08F3007C08F2007B0886
:101E4200F1007A08F0000800831203138C1D2A2F78
:101E52002B2F2C2F8C110C1F2F2F302FF32FD92F1C
:101E6200A501FF30AB002B08A6003D30A7000030D3
:101E7200A8007E30A9000030AA00831203131E08B6
:101E82000A128A15B9250A128A158316031326081F
:101E9200BC002508BB003C08AC003B08AB000310AB
:101EA200AC0CAB0C0310AC0CAB0C2B088312031361
:101EB2009500831603133B080339AB00AB0E831264
:101EC20003131708831603132B06CF392B0683122D
:101ED20003139700F12FA501FF30AB002B08A600DA
:101EE2003D30A7000030A8007E30A9000030AA00D3
:101EF200831203131E080A128A15B9250A128A15BB
:101F0200831603132608BA002508B9003A08AC0064
:101F12003908AB000310AC0CAB0C0310AC0CAB0CCF
:101F22002B08831203139B0083160313390801390C
:101F3200AB00AB0E831203131D08831603132B068B
:101F4200EF392B06831203139D00831603133A08FD
:101F5200AC003908AB000310AC0CAB0C2B080139F8
:101F6200AD00AD0E831203131D08831603132D0655
:101F7200EF392D06831203139D00F12F83120313F1
:101F82001E0883160313AB002B08C10041088312FD
:101F920003138600F12F831203131E088316031303
:101FA200AB002B08C0004008831203138800F12FF6
:101FB200831603133F08AB00AC012C08003A031947
:101FC200E32FF12F2B08003A0319312F013A03199D
:101FD2006C2F033A0319BF2F013A0319CC2FF12FAB
:101FE20083120C13831603133108FF0030088A0092
:0E1FF2002F0884002E0E8300FE0E7E0E0900C6
:08400000FF3FFF3FFF3FFF3FC0
:04400E00D420FF3F7C
:00000001FF
