:060000000A128A1110280B
:10000800FE00030E83160313AE000A08AF007F0834
:10001800B0000A128A152B2F0A128A11132883128C
:100028000313EF0183160313B301B401B501B6013D
:10003800B701B801B901BA01BB01BC01BD01BE01DC
:10004800BF0183010A128A15202D831203133D086C
:100058008039C2004208C7003D08C2004207C300F9
:100068004308CD00BC1F39283A283B284D144D08B9
:1000780003193F2840284F284D0A031D44284528C6
:100088004D280030BD000030BC000030BB000030FF
:10009800BA00BC1757280030BD000030BC00003043
:1000A800BB000030BA0041088039C2004208C706C8
:1000B8004108C2004207C3004308CC00C01F65289E
:1000C800662867284C144C0803196B286C287B2871
:1000D8004C0A031D7028712879280030C1000030AF
:1000E800C0000030BF000030BE00C01783280030B9
:1000F800C1000030C0000030BF000030BE004C0816
:100108000319872888288D284D08031D8C288D28D9
:1001180096280030BD000030BC000030BB00003025
:10012800BA00892B3A08C2004208F00040080A12B7
:100138008A15E4230A128A11710883120313D30063
:100148007008D2005208C200C301C401C5014508A5
:10015800CB004408CA004308C9004208C800530835
:10016800C200C301C401C5014508D1004408D0003C
:100178004308CF004208CE003B08C2004208F00006
:100188003F080A128A15E4230A128A117108831299
:100198000313D3007008D2005208C200C301C4017F
:1001A800C5014208C807430803110318013E031993
:1001B800DE28C907440803110318013E0319E5287E
:1001C800CA07450803110318013E0319EC28CB0799
:1001D8005308C200C301C401C5014208CE07430841
:1001E80003110318013E0319FA28CF074408031125
:1001F8000318013E03190129D00745080311031804
:10020800013E03190829D1073C08C2004208F00042
:100218003E080A128A15E4230A128A117108831209
:100228000313D3007008D2005208C200C301C401EE
:10023800C5014208C807430803110318013E031902
:100248002629C907440803110318013E03192D295B
:10025800CA07450803110318013E03193429CB07BF
:100268005308C200C301C401C5014208CE074308B0
:1002780003110318013E03194229CF07440803114B
:100288000318013E03194929D0074508031103182B
:10029800013E03195029D1070830C2000310C80DC8
:1002A800C90DCA0DCB0DC20B52293B08C20042082A
:1002B800F0003E080A128A15E4230A128A1171080E
:1002C80083120313D3007008D2005208C2005308E7
:1002D800C300C401C5014208C80743080311031835
:1002E800013E03197829C907440803110318013E80
:1002F80003197F29CA07450803110318013E03198A
:100308008629CB073A08C2004208F0003F080A12C3
:100318008A15E4230A128A11710883120313D30081
:100328007008D2005208C2005308C300C401C501B6
:100338004208C807430803110318013E0319A529F9
:10034800C907440803110318013E0319AC29CA0759
:10035800450803110318013E0319B329CB070830D8
:10036800C2000310C80DC90DCA0DCB0DC20BB529AB
:100378003A08C2004208F0003E080A128A15E4232F
:100388000A128A11710883120313D3007008D2006D
:100398005208C2005308C300C401C5014208C80777
:1003A800430803110318013E0319DB29C907440850
:1003B80003110318013E0319E229CA07450803116E
:1003C8000318013E0319E929CB073B08C20042087C
:1003D800F00040080A128A15E4230A128A117108EB
:1003E80083120313D3007008D2005208C2005308C6
:1003F800C300C401C5014208CE074308031103180E
:10040800013E0319082ACF07440803110318013EC7
:1004180003190F2AD007450803110318013E0319D1
:10042800162AD1073C08C2004208F0003F080A1209
:100438008A15E4230A128A11710883120313D30060
:100448007008D2005208C2005308C300C401C50195
:100458004208CE07430803110318013E0319352A41
:10046800CF07440803110318013E03193C2AD0079B
:10047800450803110318013E0319432AD1073C0814
:10048800C2004208F00040080A128A15E4230A1242
:100498008A11710883120313D3007008D20052081E
:1004A800C2005308C300C401C50108300310C20DBF
:1004B800C30DC40DC50DFF3E031D5A2A4208CE07C1
:1004C800430803110318013E03196B2ACF07440898
:1004D80003110318013E0319722AD00745080311B6
:1004E8000318013E0319792AD1074808C2004908B0
:1004F800C3004A08C4004B08C50018300310C50CD7
:10050800C40CC30CC20CFF3E031D822A4208CE074E
:10051800430803110318013E0319932ACF0744081F
:1005280003110318013E03199A2AD007450803113D
:100538000318013E0319A12AD1070830C20003108D
:10054800C80DC90DCA0DCB0DC20BA32A4D084C0707
:10055800C200C301C30D4208823ED20043080318FB
:10056800013EFF3ED300D52A0130C2000310CE0D54
:10057800CF0DD00DD10DC20BBA2ACB1FC42AC52A64
:10058800C62A4E140130C2000310C80DC90DCA0D89
:10059800CB0DC20BC82AFF30D2070318D30AFF308D
:1005A800D307D01FD82AD92AB82ACC01CB1FDD2AD5
:1005B800DE2AFA2AFF304805C200FF304905C30089
:1005C800FF304A05C4007F304B05C5004508440488
:1005D800430442040319F12AF22AF52ACC01CC0A71
:1005E800FA2A4E1CF82AF92AFA2AF22A4C08031980
:1005F800FE2AFF2A302B0130CE07003003180130C5
:10060800CF07003003180130D0070030031801303D
:10061800D107511C102B112B302B4E08C2004F084C
:10062800C3005008C4005108C5000130C600450D7C
:10063800C50CC40CC30CC20CC60B1B2B4508D1003F
:100648004408D0004308CF004208CE000130D2074A
:100658000318D30A0030D3075308803AFF008030CC
:100668007F02031D392BFF305202031C3C2B3D2B0C
:10067800482B7F3083120313D1008030D000003024
:10068800CF000030CE007D2B831203135308803A2D
:10069800FF0080307F02031D532B013052020318E4
:1006A800562B572B632B003083120313D1000030D5
:1006B800D0000030CF000030CE00C7017D2B831260
:1006C80003135208C2004208CD00FF30CE05FF30A8
:1006D800CF057F30D0050030D1054D1C742B752B0C
:1006E800762BD0174D08C2000310420CC3004308F4
:1006F800D1004708C2004208D1045108BD00500883
:10070800BC004F08BB004E08BA0008008312031350
:1007180057088039DC005C08E4005708DC005C07F7
:10072800DD005D08E600D61F9A2B9B2B9C2B6614D8
:1007380066080319A02BA12BB12B660A031DA52B54
:10074800A62BAE2B0030D7000030D6000030D500E5
:100758000030D400D617D701B92B0030D7000030AD
:10076800D6000030D5000030D4005B088039DC00AA
:100778005C08E500650864060319C32BC42BC52B68
:1007880064175B08DC005C07DD005D08E500DA1F24
:10079800CE2BCF2BD02B651465080319D42BD52B62
:1007A800E52B650A031DD92BDA2BE22B0030DB0081
:1007B8000030DA000030D9000030D800DA17DB0149
:1007C800ED2B0030DB000030DA000030D9000030BB
:1007D800D800660865020318F22BF32B372C641F28
:1007E800F62BF72BFB2B8030DC005C08E406660850
:1007F800DC005C08E7006508DC005C08E6006708C8
:10080800DC005C08E5005408DC005C08E7005808D8
:10081800DC005C08D4006708DC005C08D8005508D8
:10082800DC005C08E7005908DC005C08D5006708B4
:10083800DC005C08D9005608DC005C08E7005A08B0
:10084800DC005C08D6006708DC005C08DA005708A2
:10085800DC005C08E7005B08DC005C08D700670880
:10086800DC005C08DB00E7016508DC00DD015D08F1
:10087800DF0066085C02DE00031CDF035F08803AC5
:10088800FF0080307F02031D4B2C1A305E02031CD0
:100898004E2C4F2C8C2C83120313570856045504E6
:1008A8005404031D582C5A2C01305B2C0030DC00FA
:1008B8005C08E7000030D7000030D6000030D500D3
:1008C8000030D4006508DC005C08E600942C671C46
:1008D8006E2C6F2C782C6708DC0003105C0C013838
:1008E800DD005D08E7007A2C0310E70C541C7D2C12
:1008F8007E2C7F2CE7170130DC00570DD70CD60C67
:10090800D50CD40CDC0B812C0130DC005C08E6072C
:100918008312031365086602031C932C942C6B2C1A
:10092800641B972C982CE32C6608031D9C2C9D2C8B
:10093800A62C0030D7000030D6000030D50000309B
:10094800D400112E5808D407590803110318013E82
:100958000319AF2CD5075A0803110318013E0319D0
:10096800B62CD6075B0803110318013E0319BD2CEA
:10097800D707571CC02CC12C972D671CC42CC52C1D
:10098800CE2C6708DC0003105C0C0138DD005D0824
:10099800E700D02C0310E70C541CD32CD42CD52CF6
:1009A800E7170130DC00570DD70CD60CD50CD40C4A
:1009B800DC0BD72C0130DC005C08E607972D5708C4
:1009C800803AFF005B08803A7F02031DF52C5A0825
:1009D8005602031DF52C59085502031DF52C58081D
:1009E80054020318F82CF92C512DFF30DC00FF308D
:1009F800DD00FF30DE00FF30DF005808E000590856
:100A0800E1005A08E2005B08E3005408E0025508D8
:100A1800031C550F102D112DE1025608031C560F0B
:100A2800162D172DE2025708031C570F1C2D1D2DDC
:100A3800E3026008DC0761080318610F242D252DE7
:100A4800DD0762080318620F2A2D2B2DDE076308C5
:100A58000318630ADF075F08D7005E08D6005D0841
:100A6800D5005C08D4008030DC005C08E406E709A7
:100A7800E70A6708031D412D422D5F2D0130D40779
:100A8800003003180130D507003003180130D607AD
:100A9800003003180130D7075F2D5808D4025908D1
:100AA800031C590FD5025A08031C5A0FD6025B08BB
:100AB800031C5B0FD7025708560455045404031D42
:100AC800662D672D932D6708031D6B2D6C2D932DB7
:100AD8000030D7000030D6000030D5000030D400F8
:100AE800112E0130DC000310D40DD50DD60DD70D15
:100AF800DC0B772DE71F812D822D832D5414671C65
:100B0800862D872D8A2D0314E70D8C2D0310E70DF4
:100B180066080319902D912D932D0130E602D61FFA
:100B2800962D972D752DE501E71F9B2D9C2DAA2D40
:100B380067087F390319A12DA22DA52DE501E50A26
:100B4800AA2D541CA82DA92DAA2DA22D650803197C
:100B5800AE2DAF2DE32D0130D4070030031801303E
:100B6800D507003003180130D607003003180130CC
:100B7800D707571CC02DC12DE32D5408DC0055089C
:100B8800DD005608DE005708DF000130E0005F0D89
:100B9800DF0CDE0CDD0CDC0CE00BCB2D5F08D70086
:100BA8005E08D6005D08D5005C08D400660A031903
:100BB800DE2DDF2DE32D0130DC005C08E607660A38
:100BC8000319E72DE82DED2D6608031DEC2DED2DFD
:100BD800FB2D0030D7000030D6000030D5000030A3
:100BE800D4006608031DF92DFA2DFB2DE401661CBF
:100BF800FE2DFF2D012ED617052E7F30DC005C0858
:100C0800D6056608DC0003105C0CDD005D08D70023
:100C1800E41F0F2E102E112ED7170800831203136E
:100C280027088039A8002808B1002708A800280745
:100C3800A9002908B800A61F222E232E242E381416
:100C480038080319282E292E392E380A031D2D2E6F
:100C58002E2E362E0030A7000030A6000030A5004A
:100C68000030A400A617A701412E0030A7000030CD
:100C7800A6000030A5000030A40023088039A80091
:100C88002808B1062308A8002807A9002908B900E0
:100C9800A21F4F2E502E512E391439080319552EE4
:100CA800562E662E390A031D5A2E5B2E632E0030EF
:100CB800A3000030A2000030A1000030A000A2175D
:100CC800A3016E2E0030A3000030A2000030A10066
:100CD8000030A0002308220421042004031D752EDF
:100CE800762E8F2E0030A7000030A6000030A50019
:100CF8000030A4008030A6047F30A7043108A80083
:100D08002808A7042708A3002608A2002508A10090
:100D18002408A000EE2F3808031D932E942E9D2E34
:100D28000030A3000030A2000030A1000030A00075
:100D3800EE2F3808A800A9012908AB0039082802B5
:100D4800AA00031CAB032A087F3EB2002B08031835
:100D5800013E003EB3002708B0002608AF00250872
:100D6800AE002408AD000030A7000030A600003017
:100D7800A5000030A4000030B7000030B6000030F5
:100D8800B5000030B400B901132F39080319CD2E6E
:100D9800CE2EEE2E0130A8000310AD0DAE0DAF0D16
:100DA800B00DA80BD02E0130A8000310A40DA50D7E
:100DB800A60DA70DA80BD92EB71FE32EE42EE52EFE
:100DC80024140130A8000310B40DB50DB60DB70DED
:100DD800A80BE72E23083002031DFC2E22082F0241
:100DE800031DFC2E21082E02031DFC2E20082D02B7
:100DF800031CFF2E002F0F2F37172008AD022108E4
:100E0800031C210FAE022208031C220FAF02230885
:100E1800031C230FB0020130A8002808B9071A30B4
:100E28003902031C182F192FC92E30082F042E043D
:100E38002D040319202F212F402F3414402F013067
:100E4800A8000310A40DA50DA60DA70DA80B252F0E
:100E5800B71F2F2F302F312F24140130A800031073
:100E6800B40DB50DB60DB70DA80B332FFF30B20773
:100E78000318B30AFF30B307A61F432F442F232FAD
:100E8800B901B71F482F492F652FFF303405A80037
:100E9800FF303505A900FF303605AA007F30370539
:100EA800AB002B082A042904280403195C2F5D2FA2
:100EB800602FB901B90A652F241C632F642F652F91
:100EC8005D2F39080319692F6A2F9B2F0130A4075A
:100ED800003003180130A507003003180130A607B9
:100EE800003003180130A707271C7B2F7C2F9B2F6E
:100EF8002408A8002508A9002608AA002708AB008E
:100F08000130AC002B0DAB0CAA0CA90CA80CAC0B37
:100F1800862F2B08A7002A08A6002908A50028085C
:100F2800A4000130B2070318B30A0030B30733082E
:100F3800803AFF0080307F02031DA42FFF30320269
:100F4800031CA72FA82FB62FFF3083120313B2005C
:100F58000030B3000030A7000030A6000030A50024
:100F68000030A400831203133308803AFF00803056
:100F78007F02031DC12F013032020318C42FC52F71
:100F8800D22F83120313B201B3010030A70000303F
:100F9800A6000030A5000030A400B101831203139D
:100FA8003208A8002808B800381CDB2FDC2FDE2FF9
:100FB800A617E22F7F30A8002808A6053808A80041
:100FC8000310280CA9002908A7003108A800280840
:060FD800A704862E0800AC
:1017C800F800F401F5017008F200F3017208F60060
:1017D8007308F700781CF12BF22BF82B7608F40726
:1017E8000318F50A7708F50701300310F60DF70D11
:1017F800FF3E031DF92B0310F80C7808031D052C78
:10180800062CEE2B7508F1007408F000080083160A
:10181800031788018901203083160313850083127A
:101828000313850101308316031386008312031303
:101838008601831603138901831203138901831612
:101848000313811301309500013096000F088F397A
:1018580040388F000F14071587143D30920083120B
:10186800031397013F3097051708F0390C38970094
:101878000F309500303097049D011D08F0390C3861
:101888009D000F309B001D169D128C100330920492
:1018980012158C1C502C512C4D2C8C1083160313B4
:1018A80007118710071687158712831203138701FC
:1018B8001408F0390438940014129416831603138C
:1018C800141794131812181583160317871519304F
:1018D8008316031399009A01831203139817181398
:1018E8008316031398168312031318168C11831684
:1018F80003138C150B178B178B150B108C16080000
:101908000310831203136A0D6B0D83160313A000D3
:10191800200883120313ED006D08031D942C952CE9
:101928009E2C0030EB000030EA000030E900003067
:10193800E8001F2D680883160313A0008312031301
:10194800690883160313A100831203136A08831618
:101958000313A200831203136B0883160313A30057
:101968001F300310A30CA20CA10CA00CFF3E031DFA
:10197800B52C2008A400240883120313EC00EA17EE
:10198800FF30E805FF30E905FF30EA050030EB05D8
:101998009630ED02ED1FD12CD22CF02C6D08803A38
:1019A800973E0318D82CD92CDA2C952C013003102B
:1019B800EB0CEA0CE90CE80CFF3E031DDB2C0130B4
:1019C80083160313A000200883120313ED07031DD9
:1019D800EE2CEF2CDA2C0F2D20306D02031CF52C89
:1019E800F62C0A2D952C013083160313A000031042
:1019F80083120313E80DE90DEA0DEB0D83160313AB
:101A0800A00BFB2C013083120313ED026D08031D9C
:101A18000E2D0F2DF72C6C080319132D142D1F2DC7
:101A2800E809E909EA09EB09E80A0319E90A0319C7
:101A3800EA0A0319EB0A08000A128A150B240A128B
:101A48008A15831603133C0803192B2D2C2D312DD1
:101A58003C03031D302D312D332DB7014C2D0230A1
:101A68003C060319382D392D3F2D03303C06031D44
:101A78003E2D3F2D462DB701B70A3C08B10031086D
:101A8800B8004C2D3C08B100310883120313EF0055
:101A98008316031337080319522D532D252DAC2D0A
:101AA800831203136F0883160313B1000230031067
:101AB800B10CFF3E031D5B2D310883120313950003
:101AC8006F08033983160313B100B10E8312031391
:101AD8001708831603133106CF393106831203130F
:101AE8009700252D831203136F0883160313B10083
:101AF80002300310B10CFF3E031D7D2D3108831207
:101B080003139B006F08013983160313B100B10E4C
:101B1800831203131D08831603133106EF393106A8
:101B2800831203139D006F0883160313B10003107B
:101B3800310C0139B200B20E831203131D0883164B
:101B480003133206EF393206831203139D00252D45
:101B58003808B100B2013208003A0319B42D252D16
:101B68003108023A0319542D013A0319762D252D0F
:101B78000A128A11102883120313EE008316031326
:101B88002708F0002808F100F201F30100300A12DA
:101B98008A1571260A128A15730883120313DB004B
:101BA8007208DA007108D9007008D8008316031388
:101BB80027082902F0002808031C280A2A02F10035
:101BC800F201F30100300A128A1571260A128A15E9
:101BD800730883120313A7007208A6007108A500F2
:101BE8007008A4008316031325082602F000F101EB
:101BF800031CF103F201F11BF2037208F300013038
:101C08000A128A1571260A128A1573088312031399
:101C1800A3007208A2007108A1007008A0000A12AF
:101C28008A1112260A128A15831203132308C10087
:101C38002208C0002108BF002008BE008316031335
:101C48002508831203136E02F000F101031CF1034F
:101C5800F201F11BF2037208F30001300A128A152F
:101C680071260A128A15730883120313BD007208BD
:101C7800BC007108BB007008BA000A128A1129203A
:101C88000A128A15831203133D08D7003C08D600B0
:101C98003B08D5003A08D4000A128A118A230A128E
:101CA8008A15831203135708EB005608EA005508F3
:101CB800E9005408E8000A128A1584240A128A15D1
:101CC80083120313690883160313A60083120313F0
:101CD800680883160313A5000800F800780803199C
:101CE800762E772E8B2EF31F7A2E7B2E8B2E700955
:101CF800FA007109FB007209FC007309FD00FA0A79
:101D08000319FB0A0319FC0A0319FD0A932E730829
:101D1800FD007208FC007108FB007008FA007308E7
:101D2800720471047004031D9A2E9B2EA42E003099
:101D3800F3000030F2000030F1000030F0002A2FEC
:101D48009630F4007408F900B62E0130F4007408D7
:101D5800F90701300310FD0CFC0CFB0CFA0CFF3EDC
:101D6800031DAE2EFE307D05031DBB2EBC2EA92EF5
:101D7800D82E0130F4007408F9070130FA07003052
:101D880003180130FB07003003180130FC0700304E
:101D980003180130FD0701300310FD0CFC0CFB0C8F
:101DA800FA0CFF3E031DD02EFF307D05031DDD2EEE
:101DB800DE2EBD2EEA2E0130F9020130F4000310A8
:101DC800FA0DFB0DFC0DFD0DF40BE32EFC1BED2EA7
:101DD800EE2EF42E023079020318F32EF42EDF2EA5
:101DE8007918F72EF82E002FFF30FA05FF30FB0583
:101DF8007F30FC05FF30FD050310F90C7908F4006D
:101E0800F501F601F70118300310F40DF50DF60D84
:101E1800F70DFF3E031D082F7408FA047508FB042C
:101E28007608FC047708FD04780803191C2F1D2F79
:101E3800222FF31F202F212F222FFD177D08F300BB
:101E48007C08F2007B08F1007A08F0000800831291
:101E580003138C1D302F312FD42F1308831603132F
:101E6800AB002B08BF003A08031D3B2F3C2F792FEE
:101E7800A501FF30AB002B08A6003C30A7000030BE
:101E8800A8008230A9000030AA003F080A128A156B
:101E9800BF250A128A15831603132608B6002508DB
:101EA800B5003608AC003508AB000310AC0CAB0C21
:101EB8000310AC0CAB0C2B0883120313950083168C
:101EC800031335080339AB00AB0E8312031317084D
:101ED800831603132B06CF392B068312031397009F
:101EE80083160313BA01BA0AD12F3A03031D7D2FB3
:101EF8007E2FD12FA501FF30AB002B08A6003C3068
:101F0800A7000030A8008230A9000030AA003F08CE
:101F18000A128A15BF250A128A1583160313260882
:101F2800B4002508B3003408AC003308AB00031034
:101F3800AC0CAB0C0310AC0CAB0C2B0883120313CA
:101F48009B008316031333080139AB00AB0E8312D1
:101F580003131D08831603132B06EF392B06831270
:101F680003139D00831603133408AC003308AB0039
:101F78000310AC0CAB0C2B080139AD00AD0E83126D
:101F880003131D08831603132D06EF392D0683123C
:101F980003139D0083160313BA01831203138C11D4
:101FA8008C1ED72FD82FDE2F1A0883160313AB00E9
:101FB8002B08BC000B1CE12FE22FF52F831206180B
:101FC800E62FE72FF42F013083160313AB002B08FD
:101FD800B90703303902031CF22FF32FF42FB9018C
:101FE8000B10831603133008FF002F088A002E0EEB
:081FF8008300FE0E7E0E0900BD
:08400000FF3FFF3FFF3FFF3FC0
:04400E00D420FF3F7C
:00000001FF
