:060000000A128A1110280B
:10000800FE00030E83160313AE000A08AF007F0834
:10001800B0000A128A15922E0A128A111328831226
:100028000313EF0183160313B101B201B301B40145
:10003800B501B601B70183010A128A11E92F8312AB
:1000480003133D088039C2004208C7003D08C200BA
:100058004207C3004308CD00BC1F33283428352885
:100068004D144D08031939283A2849284D0A031D0B
:100078003E283F2847280030BD000030BC00003033
:10008800BB000030BA00BC1751280030BD0000305A
:10009800BC000030BB000030BA0041088039C20003
:1000A8004208C7064108C2004207C3004308CC0003
:1000B800C01F5F28602861284C144C080319652864
:1000C800662875284C0A031D6A286B287328003097
:1000D800C1000030C0000030BF000030BE00C017B3
:1000E8007D280030C1000030C0000030BF00003063
:1000F800BE004C0803198128822887284D08031D53
:100108008628872890280030BD000030BC000030C9
:10011800BB000030BA00832B3A08C2004208F00046
:1001280040080A128A15C0240A128A11710883121B
:100138000313D3007008D2005208C200C301C401DF
:10014800C5014508CB004408CA004308C900420855
:10015800C8005308C200C301C401C5014508D10045
:100168004408D0004308CF004208CE003B08C20034
:100178004208F0003F080A128A15C0240A128A11A0
:10018800710883120313D3007008D2005208C2000A
:10019800C301C401C5014208C80743080311031875
:1001A800013E0319D828C907440803110318013E62
:1001B8000319DF28CA07450803110318013E03196C
:1001C800E628CB075308C200C301C401C501420891
:1001D800CE07430803110318013E0319F428CF077B
:1001E800440803110318013E0319FB28D0074508EA
:1001F80003110318013E03190229D1073C08C20064
:100208004208F0003E080A128A15C0240A128A1110
:10021800710883120313D3007008D2005208C20079
:10022800C301C401C5014208C807430803110318E4
:10023800013E03192029C907440803110318013E88
:1002480003192729CA07450803110318013E031992
:100258002E29CB075308C200C301C401C5014208B7
:10026800CE07430803110318013E03193C29CF07A1
:10027800440803110318013E03194329D007450810
:1002880003110318013E03194A29D1070830C20097
:100298000310C80DC90DCA0DCB0DC20B4C293B0864
:1002A800C2004208F0003E080A128A15C0240A1249
:1002B8008A11710883120313D3007008D200520800
:1002C800C2005308C300C401C5014208C807430857
:1002D80003110318013E03197229C90744080311C1
:1002E8000318013E03197929CA07450803110318A1
:1002F800013E03198029CB073A08C2004208F000E2
:100308003F080A128A15C0240A128A11710883123A
:100318000313D3007008D2005208C2005308C30068
:10032800C401C5014208C807430803110318013E68
:1003380003199F29C907440803110318013E03192B
:10034800A629CA07450803110318013E0319AD2958
:10035800CB070830C2000310C80DC90DCA0DCB0D5C
:10036800C20BAF293A08C2004208F0003E080A1240
:100378008A15C0240A128A11710883120313D30044
:100388007008D2005208C2005308C300C401C50156
:100398004208C807430803110318013E0319D52969
:1003A800C907440803110318013E0319DC29CA07C9
:1003B800450803110318013E0319E329CB073B083D
:1003C800C2004208F00040080A128A15C0240A1226
:1003D8008A11710883120313D3007008D2005208DF
:1003E800C2005308C300C401C5014208CE07430830
:1003F80003110318013E0319022ACF074408031109
:100408000318013E0319092AD007450803110318E8
:10041800013E0319102AD1073C08C2004208F00027
:100428003F080A128A15C0240A128A117108831219
:100438000313D3007008D2005208C2005308C30047
:10044800C401C5014208CE07430803110318013E41
:1004580003192F2ACF07440803110318013E031973
:10046800362AD007450803110318013E03193D2A0F
:10047800D1073C08C2004208F00040080A128A1559
:10048800C0240A128A11710883120313D30070085A
:10049800D2005208C2005308C300C401C501083085
:1004A8000310C20DC30DC40DC50DFF3E031D542A14
:1004B8004208CE07430803110318013E0319652AB1
:1004C800CF07440803110318013E03196C2AD0070B
:1004D800450803110318013E0319732AD107480878
:1004E800C2004908C3004A08C4004B08C5001830B8
:1004F8000310C50CC40CC30CC20CFF3E031D7C2AA0
:100508004208CE07430803110318013E03198D2A38
:10051800CF07440803110318013E0319942AD00792
:10052800450803110318013E03199B2AD107083017
:10053800C2000310C80DC90DCA0DCB0DC20B9D2AF0
:100548004D084C07C200C301C30D4208823ED200C9
:1005580043080318013EFF3ED300CF2A0130C200F2
:100568000310CE0DCF0DD00DD10DC20BB42ACB1F69
:10057800BE2ABF2AC02A4E140130C2000310C80D7B
:10058800C90DCA0DCB0DC20BC22AFF30D207031802
:10059800D30AFF30D307D01FD22AD32AB22ACC01DC
:1005A800CB1FD72AD82AF42AFF304805C200FF30CB
:1005B8004905C300FF304A05C4007F304B05C5001C
:1005C80045084404430442040319EB2AEC2AEF2AA1
:1005D800CC01CC0AF42A4E1CF22AF32AF42AEC2A7B
:1005E8004C080319F82AF92A2A2B0130CE070030C3
:1005F80003180130CF07003003180130D00700304E
:1006080003180130D107511C0A2B0B2B2A2B4E083B
:10061800C2004F08C3005008C4005108C50001308B
:10062800C600450DC50CC40CC30CC20CC60B152B5B
:100638004508D1004408D0004308CF004208CE0046
:100648000130D2070318D30A0030D3075308803A81
:10065800FF0080307F02031D332BFF305202031C42
:10066800362B372B422B7F3083120313D100803077
:10067800D0000030CF000030CE00772B8312031358
:100688005308803AFF0080307F02031D4D2B013054
:1006980052020318502B512B5D2B00308312031389
:1006A800D1000030D0000030CF000030CE00C701AC
:1006B800772B831203135208C2004208CD00FF3083
:1006C800CE05FF30CF057F30D0050030D1054D1C59
:1006D8006E2B6F2B702BD0174D08C2000310420CE5
:1006E800C3004308D1004708C2004208D10451089A
:1006F800BD005008BC004F08BB004E08BA000800F7
:100708008312031357088039DC005C08E40057089B
:10071800DC005C07DD005D08E600D61F942B952BF6
:10072800962B6614660803199A2B9B2BAB2B660A2B
:10073800031D9F2BA02BA82B0030D7000030D6001C
:100748000030D5000030D400D617D701B32B0030C5
:10075800D7000030D6000030D5000030D4005B0848
:100768008039DC005C08E500650864060319BD2BC8
:10077800BE2BBF2B64175B08DC005C07DD005D083F
:10078800E500DA1FC82BC92BCA2B651465080319A5
:10079800CE2BCF2BDF2B650A031DD32BD42BDC2BC1
:1007A8000030DB000030DA000030D9000030D8001B
:1007B800DA17DB01E72B0030DB000030DA0000300D
:1007C800D9000030D800660865020318EC2BED2B21
:1007D800312C641FF02BF12BF52B8030DC005C08EA
:1007E800E4066608DC005C08E7006508DC005C08D5
:1007F800E6006708DC005C08E5005408DC005C08DB
:10080800E7005808DC005C08D4006708DC005C08D6
:10081800D8005508DC005C08E7005908DC005C08D3
:10082800D5006708DC005C08D9005608DC005C08C5
:10083800E7005A08DC005C08D6006708DC005C08A2
:10084800DA005708DC005C08E7005B08DC005C089D
:10085800D7006708DC005C08DB00E7016508DC00FE
:10086800DD015D08DF0066085C02DE00031CDF03B3
:100878005F08803AFF0080307F02031D452C1A3044
:100888005E02031C482C492C862C8312031357083C
:10089800560455045404031D522C542C0130552C75
:1008A8000030DC005C08E7000030D7000030D600DC
:1008B8000030D5000030D4006508DC005C08E60094
:1008C8008E2C671C682C692C722C6708DC000310BE
:1008D8005C0C0138DD005D08E700742C0310E70CA0
:1008E800541C772C782C792CE7170130DC00570D35
:1008F800D70CD60CD50CD40CDC0B7B2C0130DC00CF
:100908005C08E6078312031365086602031C8D2C36
:100918008E2C652C641B912C922CDD2C6608031DF3
:10092800962C972CA02C0030D7000030D600003031
:10093800D5000030D4000B2E5808D40759080311ED
:100948000318013E0319A92CD5075A0803110318E7
:10095800013E0319B02CD6075B0803110318013EAA
:100968000319B72CD707571CBA2CBB2C912D671C21
:10097800BE2CBF2CC82C6708DC0003105C0C0138A7
:10098800DD005D08E700CA2C0310E70C541CCD2CD1
:10099800CE2CCF2CE7170130DC00570DD70CD60C26
:1009A800D50CD40CDC0BD12C0130DC005C08E6073C
:1009B800912D5708803AFF005B08803A7F02031D9B
:1009C800EF2C5A085602031DEF2C59085502031D37
:1009D800EF2C580854020318F22CF32C4B2DFF303F
:1009E800DC00FF30DD00FF30DE00FF30DF0058089C
:1009F800E0005908E1005A08E2005B08E3005408E7
:100A0800E0025508031C550F0A2D0B2DE10256086C
:100A1800031C560F102D112DE2025708031C570F07
:100A2800162D172DE3026008DC0761080318610F13
:100A38001E2D1F2DDD0762080318620F242D252D9A
:100A4800DE0763080318630ADF075F08D7005E083C
:100A5800D6005D08D5005C08D4008030DC005C0856
:100A6800E406E709E70A6708031D3B2D3C2D592DCD
:100A78000130D407003003180130D50700300318BF
:100A88000130D607003003180130D707592D580810
:100A9800D4025908031C590FD5025A08031C5A0FCF
:100AA800D6025B08031C5B0FD7025708560455048F
:100AB8005404031D602D612D8D2D6708031D652DC0
:100AC800662D8D2D0030D7000030D6000030D500BF
:100AD8000030D4000B2E0130DC000310D40DD50DEE
:100AE800D60DD70DDC0B712DE71F7B2D7C2D7D2DB1
:100AF8005414671C802D812D842D0314E70D862D39
:100B08000310E70D660803198A2D8B2D8D2D0130F2
:100B1800E602D61F902D912D6F2DE501E71F952D2B
:100B2800962DA42D67087F3903199B2D9C2D9F2D89
:100B3800E501E50AA42D541CA22DA32DA42D9C2D5E
:100B480065080319A82DA92DDD2D0130D407003023
:100B580003180130D507003003180130D6070030DC
:100B680003180130D707571CBA2DBB2DDD2D5408AB
:100B7800DC005508DD005608DE005708DF000130AC
:100B8800E0005F0DDF0CDE0CDD0CDC0CE00BC52D8E
:100B98005F08D7005E08D6005D08D5005C08D40061
:100BA800660A0319D82DD92DDD2D0130DC005C082B
:100BB800E607660A0319E12DE22DE72D6608031DF5
:100BC800E62DE72DF52D0030D7000030D600003097
:100BD800D5000030D4006608031DF32DF42DF52D43
:100BE800E401661CF82DF92DFB2DD617FF2D7F305B
:100BF800DC005C08D6056608DC0003105C0CDD0030
:100C08005D08D700E41F092E0A2E0B2ED7170800FF
:100C18008312031327088039A8002808B100270881
:100C2800A8002807A9002908B800A61F1C2E1D2EF9
:100C38001E2E381438080319222E232E332E380A74
:100C4800031D272E282E302E0030A7000030A600C6
:100C58000030A5000030A400A617A7013B2E0030E5
:100C6800A7000030A6000030A5000030A40023082B
:100C78008039A8002808B1062308A8002807A90079
:100C88002908B900A21F492E4A2E4B2E39143908BB
:100C980003194F2E502E602E390A031D542E552E3F
:100CA8005D2E0030A3000030A2000030A10000300B
:100CB800A000A217A301682E0030A3000030A200F4
:100CC8000030A1000030A0002308220421042004E1
:100CD800031D6F2E702E892E0030A7000030A6004D
:100CE8000030A5000030A4008030A6047F30A7049F
:100CF8003108A8002808A7042708A3002608A2008E
:100D08002508A1002408A000E82F3808031D8D2E0F
:100D18008E2E972E0030A3000030A2000030A100D4
:100D28000030A000E82F3808A800A9012908AB0066
:100D380039082802AA00031CAB032A087F3EB20028
:100D48002B080318013E003EB3002708B000260810
:100D5800AF002508AE002408AD000030A700003021
:100D6800A6000030A5000030A4000030B700003015
:100D7800B6000030B5000030B400B9010D2F3908B5
:100D88000319C72EC82EE82E0130A8000310AD0D98
:100D9800AE0DAF0DB00DA80BCA2E0130A800031080
:100DA800A40DA50DA60DA70DA80BD32EB71FDD2EDC
:100DB800DE2EDF2E24140130A8000310B40DB50D6B
:100DC800B60DB70DA80BE12E23083002031DF62E31
:100DD80022082F02031DF62E21082E02031DF62ECF
:100DE80020082D02031CF92EFA2E092F3717200888
:100DF800AD022108031C210FAE022208031C220F9A
:100E0800AF022308031C230FB0020130A8002808F2
:100E1800B9071A303902031C122F132FC32E3008BA
:100E28002F042E042D0403191A2F1B2F3A2F3414C4
:100E38003A2F0130A8000310A40DA50DA60DA70D8B
:100E4800A80B1F2FB71F292F2A2F2B2F241401304F
:100E5800A8000310B40DB50DB60DB70DA80B2D2FB6
:100E6800FF30B2070318B30AFF30B307A61F3D2FA0
:100E78003E2F1D2FB901B71F422F432F5F2FFF3081
:100E88003405A800FF303505A900FF303605AA0053
:100E98007F303705AB002B082A04290428040319DE
:100EA800562F572F5A2FB901B90A5F2F241C5D2FCF
:100EB8005E2F5F2F572F39080319632F642F952F43
:100EC8000130A407003003180130A50700300318CB
:100ED8000130A607003003180130A707271C752F1B
:100EE800762F952F2408A8002508A9002608AA000F
:100EF8002708AB000130AC002B0DAB0CAA0CA90CD9
:100F0800A80CAC0B802F2B08A7002A08A6002908DC
:100F1800A5002808A4000130B2070318B30A00305E
:100F2800B3073308803AFF0080307F02031D9E2FED
:100F3800FF303202031CA12FA22FB02FFF308312E3
:100F48000313B2000030B3000030A7000030A60041
:100F58000030A5000030A400831203133308803A40
:100F6800FF0080307F02031DBB2F013032020318BF
:100F7800BE2FBF2FCC2F83120313B201B301003051
:100F8800A7000030A6000030A5000030A400B10181
:100F9800831203133208A8002808B800381CD52F7C
:100FA800D62FD82FA617DC2F7F30A8002808A60533
:100FB8003808A8000310280CA9002908A700310840
:100FC800A8002808A704802E08000A128A15E7241A
:100FD8000A128A1183120313150886001B08880059
:080FE800EE2F0A128A111028F5
:10198000F800F401F5017008F200F3017208F600A6
:101990007308F700781CCD2CCE2CD42C7608F407D5
:1019A0000318F50A7708F50701300310F60DF70D57
:1019B000FF3E031DD52C0310F80C7808031DE12C05
:1019C000E22CCA2C7508F1007408F0000800831698
:1019D00003178801890120308316031385008312C1
:1019E00003138501831603138601831203138601F3
:1019F00083160313880183120313880183160313CC
:101A00000F088F3940388F000F14071587143D30A9
:101A100092008312031397013F3097051708F0399E
:101A20000C3897000F309500303097049D011D0849
:101A3000F0390C389D000F309B001D169D128C1044
:101A40000330920412158C1C262D272D232D8C106B
:101A500083160313071187101830870083120313AE
:101A600087011408F0390438940014129416831670
:101A7000031314179413831203138C118316031387
:101A80008C150B178B1708000310831203136A0DB4
:101A90006B0D83160313A000200883120313ED00BF
:101AA0006D08031D542D552D5E2D0030EB000030C8
:101AB000EA000030E9000030E800DF2D68088316F6
:101AC0000313A00083120313690883160313A100F4
:101AD000831203136A0883160313A20083120313ED
:101AE0006B0883160313A3001F300310A30CA20C72
:101AF000A10CA00CFF3E031D752D2008A400240896
:101B000083120313EC00EA17FF30E805FF30E90504
:101B1000FF30EA050030EB059630ED02ED1F912D08
:101B2000922DB02D6D08803A973E0318982D992D6F
:101B30009A2D552D01300310EB0CEA0CE90CE80C42
:101B4000FF3E031D9B2D013083160313A0002008C8
:101B500083120313ED07031DAE2DAF2D9A2DCF2D4C
:101B600020306D02031CB52DB62DCA2D552D013028
:101B700083160313A000031083120313E80DE90D6D
:101B8000EA0DEB0D83160313A00BBB2D013083125E
:101B90000313ED026D08031DCE2DCF2DB72D6C085C
:101BA0000319D32DD42DDF2DE809E909EA09EB0942
:101BB000E80A0319E90A0319EA0A0319EB0A0800FB
:101BC00083120313EE00831603132708F00028087E
:101BD000F100F201F30100300A128A1546270A12B9
:101BE0008A15730883120313DB007208DA00710888
:101BF000D9007008D8008316031327082902F000C3
:101C00002808031C280A2A02F100F201F30100301F
:101C10000A128A1546270A128A15730883120313BB
:101C2000A7007208A6007108A5007008A40083161A
:101C3000031325082602F000F101031CF103F20151
:101C4000F11BF2037208F30001300A128A154627CD
:101C50000A128A15730883120313A3007208A200E4
:101C60007108A1007008A0000A128A110C260A123D
:101C70008A15831203132308C1002208C00021081B
:101C8000BF002008BE008316031325088312031328
:101C90006E02F000F101031CF103F201F11BF203EB
:101CA0007208F30001300A128A1546270A128A15B3
:101CB000730883120313BD007208BC007108BB00D7
:101CC0007008BA000A128A1123200A128A15831298
:101CD00003133D08D7003C08D6003B08D5003A085E
:101CE000D4000A128A1184230A128A15831203135C
:101CF0005708EB005608EA005508E9005408E800C8
:101D00000A128A1544250A128A15831203136908D8
:101D100083160313A60083120313680883160313A4
:101D2000A5000800831203138C1D972E982E3B2FBD
:101D3000130883160313AB002B08B7003508031DE7
:101D4000A22EA32EE02EA501FF30AB002B08A6008B
:101D50003D30A7000030A8007E30A9000030AA0066
:101D600037080A128A15E0250A128A15831603130A
:101D70002608B4002508B3003408AC003308AB00D3
:101D80000310AC0CAB0C0310AC0CAB0C2B08831287
:101D9000031395008316031333080339AB00AB0E0E
:101DA000831203131708831603132B06CF392B0650
:101DB00083120313970083160313B501B50A382F56
:101DC0003503031DE42EE52E382FA501FF30AB00AF
:101DD0002B08A6003D30A7000030A8007E30A900E7
:101DE0000030AA0037080A128A15E0250A128A155F
:101DF000831603132608B2002508B1003208AC0090
:101E00003108AB000310AC0CAB0C0310AC0CAB0CEA
:101E10002B08831203139B00831603133108013927
:101E2000AB00AB0E831203131D08831603132B069E
:101E3000EF392B06831203139D0083160313320818
:101E4000AC003108AB000310AC0CAB0C2B08013913
:101E5000AD00AD0E831203131D08831603132D0668
:101E6000EF392D06831203139D0083160313B5016A
:101E7000831203138C11831603133008FF002F08FD
:101E80008A002E0E8300FE0E7E0E0900F8007808F0
:101E900003194B2F4C2F602FF31F4F2F502F602F04
:101EA0007009FA007109FB007209FC007309FD005A
:101EB000FA0A0319FB0A0319FC0A0319FD0A682F21
:101EC0007308FD007208FC007108FB007008FA003E
:101ED0007308720471047004031D6F2F702F792F23
:101EE0000030F3000030F2000030F1000030F0006C
:101EF000FF2F9630F4007408F9008B2F0130F400A6
:101F00007408F90701300310FD0CFC0CFB0CFA0CF3
:101F1000FF3E031D832FFE307D05031D902F912F63
:101F20007E2FAD2F0130F4007408F9070130FA0755
:101F3000003003180130FB07003003180130FC07A4
:101F4000003003180130FD0701300310FD0CFC0CBC
:101F5000FB0CFA0CFF3E031DA52FFF307D05031D72
:101F6000B22FB32F922FBF2F0130F9020130F400AE
:101F70000310FA0DFB0DFC0DFD0DF40BB82FFC1B2F
:101F8000C22FC32FC92F023079020318C82FC92FBF
:101F9000B42F7918CC2FCD2FD52FFF30FA05FF3075
:101FA000FB057F30FC05FF30FD050310F90C7908B7
:101FB000F400F501F601F70118300310F40DF50DEA
:101FC000F60DF70DFF3E031DDD2F7408FA047508AA
:101FD000FB047608FC047708FD0478080319F12F48
:101FE000F22FF72FF31FF52FF62FF72FFD177D0890
:101FF000F3007C08F2007B08F1007A08F00008008A
:08400000FF3FFF3FFF3FFF3FC0
:04400E00D420FF3F7C
:00000001FF
